S01700004763634170706C69636174696F6E312E737265635B
S11300000C942A000C943E000C943C000C943C008C
S11300100C943C000C943C000C943C000C943C006C
S11300200C943C000C943C000C943C000C943C005C
S11300300C943C000C943C000C943C000C943C004C
S11300400C943C000C943C000C943C000C943C003C
S11300500C943C0011241FBECFE5D8E0DEBFCDBF19
S113006020E0A0E6B0E001C01D92A936B207E1F796
S11300700E9473000C9466020C9400001F920F926D
S11300800FB60F9211242F933F934F935F936F9367
S11300907F938F939F93AF93BF93EF93FF9380913D
S11300A06800833049F40E940E0282E00E94D1016C
S11300B082E08093680006C00E94140287E690E004
S11300C00E94DD01FF91EF91BF91AF919F918F91BC
S11300D07F916F915F914F913F912F910F900FBE40
S11300E00F901F90189580E00E945D0181E00E94AE
S11300F05D0182E00E945D0183E00E945D0180E079
S11301000E947D0181E00E947D0182E00E947D01C8
S113011083E00E947D016FEF81E00E94BD0040E01A
S113012064E081E00E94DD0083E00E949D010E9462
S1130130E601CAE3D0E041E062E081E00E940E0102
S113014081E090E00E94180240E062E081E00E94B9
S11301500E0108B600FC0AC08091670020E1829F6E
S1130160C0011124BE010E943E0201C060E06295FC
S1130170607F81E00E94CD00DECF813041F028F025
S1130180823039F0833041F406C06ABB089567BBFE
S1130190089564BB089561BB0895813041F028F04F
S11301A0823039F0833041F406C06BBB089568BBDC
S11301B0089565BB089562BB0895442319F04F3F29
S11301C061F514C0813049F028F0823049F0833061
S11301D021F509C08AB38ABB089587B387BB089504
S11301E084B384BB089581B381BB0895813051F0F9
S11301F028F0823059F0833081F40CC08AB38FEF39
S11302008ABB089587B38FEF87BB089584B38FEFBC
S113021084BB089581B38FEF81BB089541111DC044
S1130220813061F030F0823071F0833009F044C0E5
S11302300FC08BB3609568236BBB089588B360953A
S1130240682368BB089585B36095682365BB0895EA
S113025082B36095682362BB0895813081F028F0F1
S11302608230B9F0833041F51EC08BB3962F909540
S113027089238BBB8BB34623482B4BBB089588B390
S1130280962F9095892388BB88B34623482B48BB77
S1130290089585B3962F9095892385BB85B346230E
S11302A0482B45BB089582B3962F9095892382BB32
S11302B082B34623482B42BB0895813061F028F075
S11302C0823079F08330C1F412C04FEF60E181E0F5
S11302D00E94DD0008954FEF60E281E00E94DD009E
S11302E008954FEF60E481E00E94DD0008954FEF30
S11302F060E881E00E94DD000895813061F028F01B
S1130300823079F08330C1F412C040E060E181E0D2
S11303100E940E01089540E060E281E00E940E0117
S1130320089540E060E481E00E940E01089540E0F9
S113033060E881E00E940E010895EF920F93CF933D
S1130340C82FE12C00E020E044E060E080E00E945F
S1130350EA0183E080936800C23089F0C330E9F495
S11303608FB78F778FBF40E064E083E00E94DD00A9
S113037085B7836085BF8FB780688FBF0EC08FB786
S11303808F778FBF40E064E083E00E94DD0085B793
S1130390826085BF8FB780688FBFCF910F91EF9038
S11303A00895823031F0833039F485B7836085BF96
S11303B0089585B7826085BF0895CF93DF93EC01DC
S11303C00E940C028883DF91CF9108958BB78064DB
S11303D08BBF0895EF920F93809360006093610048
S11303E0409362002093630000936400E0926500F0
S11303F092B712BE9CB71CBE92B7292B22BF93B7EB
S1130400892B682B63BF8CB7082B0CBF89B7E82AEC
S1130410E9BE0F91EF90089582B7089593B7809144
S11304206200892B83BF089583B7887F83BF0895B3
S1130430EF920F93CF93DF93EC01E12C0AEF20E0CE
S113044043E060E288E00E94EA010E940E0288B75D
S1130450826088BF209769F020E030E008B601FE92
S1130460FDCF88B7826088BF2F5F3F4F2C173D07B1
S1130470A9F7DF91CF910F91EF90089597FB072E85
S113048016F4009407D077FD09D00E94520207FCAD
S113049005D03EF4909581959F4F08957095619590
S11304A07F4F0895AA1BBB1B51E107C0AA1FBB1FA6
S11304B0A617B70710F0A61BB70B881F991F5A95EC
S11304C0A9F780959095BC01CD010895F894FFCFCC
S9030000FC
